{
  "contractName": "ERC20",
  "abi": [
    {
      "inputs": [
        {
          "internalType": "string",
          "name": "_tokenName",
          "type": "string"
        },
        {
          "internalType": "string",
          "name": "_symbol",
          "type": "string"
        },
        {
          "internalType": "uint256",
          "name": "_totalSupply",
          "type": "uint256"
        },
        {
          "internalType": "uint256",
          "name": "_decimals",
          "type": "uint256"
        },
        {
          "internalType": "uint256",
          "name": "_cappedAmount",
          "type": "uint256"
        }
      ],
      "stateMutability": "nonpayable",
      "type": "constructor"
    },
    {
      "anonymous": false,
      "inputs": [
        {
          "indexed": true,
          "internalType": "address",
          "name": "tokenOwner",
          "type": "address"
        },
        {
          "indexed": true,
          "internalType": "address",
          "name": "spender",
          "type": "address"
        },
        {
          "indexed": false,
          "internalType": "uint256",
          "name": "tokens",
          "type": "uint256"
        }
      ],
      "name": "Approval",
      "type": "event"
    },
    {
      "anonymous": false,
      "inputs": [
        {
          "indexed": true,
          "internalType": "address",
          "name": "from",
          "type": "address"
        },
        {
          "indexed": true,
          "internalType": "address",
          "name": "to",
          "type": "address"
        },
        {
          "indexed": false,
          "internalType": "uint256",
          "name": "tokens",
          "type": "uint256"
        }
      ],
      "name": "Transfer",
      "type": "event"
    },
    {
      "inputs": [],
      "name": "name",
      "outputs": [
        {
          "internalType": "string",
          "name": "",
          "type": "string"
        }
      ],
      "stateMutability": "view",
      "type": "function"
    },
    {
      "inputs": [],
      "name": "symbol",
      "outputs": [
        {
          "internalType": "string",
          "name": "",
          "type": "string"
        }
      ],
      "stateMutability": "view",
      "type": "function"
    },
    {
      "inputs": [],
      "name": "totalSupply",
      "outputs": [
        {
          "internalType": "uint256",
          "name": "",
          "type": "uint256"
        }
      ],
      "stateMutability": "view",
      "type": "function"
    },
    {
      "inputs": [],
      "name": "decimals",
      "outputs": [
        {
          "internalType": "uint256",
          "name": "",
          "type": "uint256"
        }
      ],
      "stateMutability": "view",
      "type": "function"
    },
    {
      "inputs": [
        {
          "internalType": "address",
          "name": "tokenOwner",
          "type": "address"
        }
      ],
      "name": "balanceOf",
      "outputs": [
        {
          "internalType": "uint256",
          "name": "",
          "type": "uint256"
        }
      ],
      "stateMutability": "view",
      "type": "function"
    },
    {
      "inputs": [
        {
          "internalType": "address",
          "name": "to",
          "type": "address"
        },
        {
          "internalType": "uint256",
          "name": "token",
          "type": "uint256"
        }
      ],
      "name": "transfer",
      "outputs": [
        {
          "internalType": "bool",
          "name": "success",
          "type": "bool"
        }
      ],
      "stateMutability": "nonpayable",
      "type": "function"
    },
    {
      "inputs": [
        {
          "internalType": "address",
          "name": "spender",
          "type": "address"
        },
        {
          "internalType": "uint256",
          "name": "tokens",
          "type": "uint256"
        }
      ],
      "name": "approve",
      "outputs": [
        {
          "internalType": "bool",
          "name": "success",
          "type": "bool"
        }
      ],
      "stateMutability": "nonpayable",
      "type": "function"
    },
    {
      "inputs": [
        {
          "internalType": "address",
          "name": "_owner",
          "type": "address"
        },
        {
          "internalType": "address",
          "name": "spender",
          "type": "address"
        }
      ],
      "name": "allowance",
      "outputs": [
        {
          "internalType": "uint256",
          "name": "",
          "type": "uint256"
        }
      ],
      "stateMutability": "view",
      "type": "function"
    },
    {
      "inputs": [
        {
          "internalType": "address",
          "name": "from",
          "type": "address"
        },
        {
          "internalType": "address",
          "name": "to",
          "type": "address"
        },
        {
          "internalType": "uint256",
          "name": "tokens",
          "type": "uint256"
        }
      ],
      "name": "transferFrom",
      "outputs": [
        {
          "internalType": "bool",
          "name": "success",
          "type": "bool"
        }
      ],
      "stateMutability": "nonpayable",
      "type": "function"
    },
    {
      "inputs": [
        {
          "internalType": "address",
          "name": "_address",
          "type": "address"
        },
        {
          "internalType": "uint256",
          "name": "_amount",
          "type": "uint256"
        }
      ],
      "name": "mint_token",
      "outputs": [],
      "stateMutability": "nonpayable",
      "type": "function"
    },
    {
      "inputs": [
        {
          "internalType": "uint256",
          "name": "time",
          "type": "uint256"
        }
      ],
      "name": "lock_trans",
      "outputs": [],
      "stateMutability": "nonpayable",
      "type": "function"
    }
  ],
  "bytecode": "0x60806040523480156200001157600080fd5b5060405162001fda38038062001fda833981810160405281019062000037919062000276565b84600090805190602001906200004f9291906200013d565b508360019080519060200190620000689291906200013d565b5082600760003373ffffffffffffffffffffffffffffffffffffffff1673ffffffffffffffffffffffffffffffffffffffff1681526020019081526020016000206000828254620000ba919062000391565b9250508190555081600a620000d0919062000449565b83620000dd919062000586565b600281905550816003819055508060058190555033600460006101000a81548173ffffffffffffffffffffffffffffffffffffffff021916908373ffffffffffffffffffffffffffffffffffffffff160217905550505050505062000711565b8280546200014b9062000627565b90600052602060002090601f0160209004810192826200016f5760008555620001bb565b82601f106200018a57805160ff1916838001178555620001bb565b82800160010185558215620001bb579182015b82811115620001ba5782518255916020019190600101906200019d565b5b509050620001ca9190620001ce565b5090565b5b80821115620001e9576000816000905550600101620001cf565b5090565b600062000204620001fe846200035e565b6200032a565b9050828152602081018484840111156200021d57600080fd5b6200022a848285620005f1565b509392505050565b600082601f8301126200024457600080fd5b815162000256848260208601620001ed565b91505092915050565b6000815190506200027081620006f7565b92915050565b600080600080600060a086880312156200028f57600080fd5b600086015167ffffffffffffffff811115620002aa57600080fd5b620002b88882890162000232565b955050602086015167ffffffffffffffff811115620002d657600080fd5b620002e48882890162000232565b9450506040620002f7888289016200025f565b93505060606200030a888289016200025f565b92505060806200031d888289016200025f565b9150509295509295909350565b6000604051905081810181811067ffffffffffffffff82111715620003545762000353620006bb565b5b8060405250919050565b600067ffffffffffffffff8211156200037c576200037b620006bb565b5b601f19601f8301169050602081019050919050565b60006200039e82620005e7565b9150620003ab83620005e7565b9250827fffffffffffffffffffffffffffffffffffffffffffffffffffffffffffffffff03821115620003e357620003e26200065d565b5b828201905092915050565b6000808291508390505b600185111562000440578086048111156200041857620004176200065d565b5b6001851615620004285780820291505b80810290506200043885620006ea565b9450620003f8565b94509492505050565b60006200045682620005e7565b91506200046383620005e7565b9250620004927fffffffffffffffffffffffffffffffffffffffffffffffffffffffffffffffff84846200049a565b905092915050565b600082620004ac57600190506200057f565b81620004bc57600090506200057f565b8160018114620004d55760028114620004e05762000516565b60019150506200057f565b60ff841115620004f557620004f46200065d565b5b8360020a9150848211156200050f576200050e6200065d565b5b506200057f565b5060208310610133831016604e8410600b8410161715620005505782820a9050838111156200054a57620005496200065d565b5b6200057f565b6200055f8484846001620003ee565b925090508184048111156200057957620005786200065d565b5b81810290505b9392505050565b60006200059382620005e7565b9150620005a083620005e7565b9250817fffffffffffffffffffffffffffffffffffffffffffffffffffffffffffffffff0483118215151615620005dc57620005db6200065d565b5b828202905092915050565b6000819050919050565b60005b8381101562000611578082015181840152602081019050620005f4565b8381111562000621576000848401525b50505050565b600060028204905060018216806200064057607f821691505b602082108114156200065757620006566200068c565b5b50919050565b7f4e487b7100000000000000000000000000000000000000000000000000000000600052601160045260246000fd5b7f4e487b7100000000000000000000000000000000000000000000000000000000600052602260045260246000fd5b7f4e487b7100000000000000000000000000000000000000000000000000000000600052604160045260246000fd5b60008160011c9050919050565b6200070281620005e7565b81146200070e57600080fd5b50565b6118b980620007216000396000f3fe608060405234801561001057600080fd5b50600436106100a95760003560e01c80636e5b38e6116100715780636e5b38e61461016857806370a082311461018457806395d89b41146101b4578063a9059cbb146101d2578063ca7e15f214610202578063dd62ed3e1461021e576100a9565b806306fdde03146100ae578063095ea7b3146100cc57806318160ddd146100fc57806323b872dd1461011a578063313ce5671461014a575b600080fd5b6100b661024e565b6040516100c39190611536565b60405180910390f35b6100e660048036038101906100e1919061121f565b6102e0565b6040516100f3919061151b565b60405180910390f35b6101046104f3565b6040516101119190611678565b60405180910390f35b610134600480360381019061012f91906111d0565b6104fd565b604051610141919061151b565b60405180910390f35b610152610931565b60405161015f9190611678565b60405180910390f35b610182600480360381019061017d919061121f565b61093b565b005b61019e6004803603810190610199919061116b565b610b8a565b6040516101ab9190611678565b60405180910390f35b6101bc610bd3565b6040516101c99190611536565b60405180910390f35b6101ec60048036038101906101e7919061121f565b610c65565b6040516101f9919061151b565b60405180910390f35b61021c6004803603810190610217919061125b565b610fa6565b005b61023860048036038101906102339190611194565b61108e565b6040516102459190611678565b60405180910390f35b60606000805461025d906117b4565b80601f0160208091040260200160405190810160405280929190818152602001828054610289906117b4565b80156102d65780601f106102ab576101008083540402835291602001916102d6565b820191906000526020600020905b8154815290600101906020018083116102b957829003601f168201915b5050505050905090565b60008082148061036c57506000600860003373ffffffffffffffffffffffffffffffffffffffff1673ffffffffffffffffffffffffffffffffffffffff16815260200190815260200160002060008573ffffffffffffffffffffffffffffffffffffffff1673ffffffffffffffffffffffffffffffffffffffff16815260200190815260200160002054145b61037557600080fd5b61040482600860003373ffffffffffffffffffffffffffffffffffffffff1673ffffffffffffffffffffffffffffffffffffffff16815260200190815260200160002060008673ffffffffffffffffffffffffffffffffffffffff1673ffffffffffffffffffffffffffffffffffffffff1681526020019081526020016000205461111590919063ffffffff16565b600860003373ffffffffffffffffffffffffffffffffffffffff1673ffffffffffffffffffffffffffffffffffffffff16815260200190815260200160002060008573ffffffffffffffffffffffffffffffffffffffff1673ffffffffffffffffffffffffffffffffffffffff168152602001908152602001600020819055508273ffffffffffffffffffffffffffffffffffffffff163373ffffffffffffffffffffffffffffffffffffffff167f8c5be1e5ebec7d5bd14f71427d1e84f3dd0314c0f7b2291e5b200ac8c7c3b925846040516104e19190611678565b60405180910390a36001905092915050565b6000600254905090565b600081600760008673ffffffffffffffffffffffffffffffffffffffff1673ffffffffffffffffffffffffffffffffffffffff16815260200190815260200160002054101561054b57600080fd5b81600860008673ffffffffffffffffffffffffffffffffffffffff1673ffffffffffffffffffffffffffffffffffffffff16815260200190815260200160002060003373ffffffffffffffffffffffffffffffffffffffff1673ffffffffffffffffffffffffffffffffffffffff1681526020019081526020016000205410156105d457600080fd5b4260065410610618576040517f08c379a000000000000000000000000000000000000000000000000000000000815260040161060f90611618565b60405180910390fd5b600073ffffffffffffffffffffffffffffffffffffffff168373ffffffffffffffffffffffffffffffffffffffff161415610688576040517f08c379a000000000000000000000000000000000000000000000000000000000815260040161067f90611638565b60405180910390fd5b6106da82600760008773ffffffffffffffffffffffffffffffffffffffff1673ffffffffffffffffffffffffffffffffffffffff1681526020019081526020016000205461112b90919063ffffffff16565b600760008673ffffffffffffffffffffffffffffffffffffffff1673ffffffffffffffffffffffffffffffffffffffff1681526020019081526020016000208190555061076f82600760008673ffffffffffffffffffffffffffffffffffffffff1673ffffffffffffffffffffffffffffffffffffffff1681526020019081526020016000205461111590919063ffffffff16565b600760008573ffffffffffffffffffffffffffffffffffffffff1673ffffffffffffffffffffffffffffffffffffffff1681526020019081526020016000208190555061084182600860008773ffffffffffffffffffffffffffffffffffffffff1673ffffffffffffffffffffffffffffffffffffffff16815260200190815260200160002060003373ffffffffffffffffffffffffffffffffffffffff1673ffffffffffffffffffffffffffffffffffffffff1681526020019081526020016000205461112b90919063ffffffff16565b600860008673ffffffffffffffffffffffffffffffffffffffff1673ffffffffffffffffffffffffffffffffffffffff16815260200190815260200160002060003373ffffffffffffffffffffffffffffffffffffffff1673ffffffffffffffffffffffffffffffffffffffff168152602001908152602001600020819055508273ffffffffffffffffffffffffffffffffffffffff168473ffffffffffffffffffffffffffffffffffffffff167fddf252ad1be2c89b69c2b068fc378daa952ba7f163c4a11628f55a4df523b3ef8460405161091e9190611678565b60405180910390a3600190509392505050565b6000600354905090565b600460009054906101000a900473ffffffffffffffffffffffffffffffffffffffff1673ffffffffffffffffffffffffffffffffffffffff163373ffffffffffffffffffffffffffffffffffffffff16146109cb576040517f08c379a00000000000000000000000000000000000000000000000000000000081526004016109c290611598565b60405180910390fd5b600073ffffffffffffffffffffffffffffffffffffffff168273ffffffffffffffffffffffffffffffffffffffff161415610a3b576040517f08c379a0000000000000000000000000000000000000000000000000000000008152600401610a32906115d8565b60405180910390fd5b60008111610a7e576040517f08c379a0000000000000000000000000000000000000000000000000000000008152600401610a75906115b8565b60405180910390fd5b600554610a968260025461111590919063ffffffff16565b11610ad6576040517f08c379a0000000000000000000000000000000000000000000000000000000008152600401610acd90611558565b60405180910390fd5b610b2881600760008573ffffffffffffffffffffffffffffffffffffffff1673ffffffffffffffffffffffffffffffffffffffff1681526020019081526020016000205461111590919063ffffffff16565b600760008473ffffffffffffffffffffffffffffffffffffffff1673ffffffffffffffffffffffffffffffffffffffff16815260200190815260200160002081905550610b808160025461111590919063ffffffff16565b6002819055505050565b6000600760008373ffffffffffffffffffffffffffffffffffffffff1673ffffffffffffffffffffffffffffffffffffffff168152602001908152602001600020549050919050565b606060018054610be2906117b4565b80601f0160208091040260200160405190810160405280929190818152602001828054610c0e906117b4565b8015610c5b5780601f10610c3057610100808354040283529160200191610c5b565b820191906000526020600020905b815481529060010190602001808311610c3e57829003601f168201915b5050505050905090565b600081600760003373ffffffffffffffffffffffffffffffffffffffff1673ffffffffffffffffffffffffffffffffffffffff168152602001908152602001600020541015610ce9576040517f08c379a0000000000000000000000000000000000000000000000000000000008152600401610ce090611578565b60405180910390fd5b600073ffffffffffffffffffffffffffffffffffffffff163373ffffffffffffffffffffffffffffffffffffffff161415610d59576040517f08c379a0000000000000000000000000000000000000000000000000000000008152600401610d5090611658565b60405180910390fd5b600073ffffffffffffffffffffffffffffffffffffffff168373ffffffffffffffffffffffffffffffffffffffff161415610dc9576040517f08c379a0000000000000000000000000000000000000000000000000000000008152600401610dc090611638565b60405180910390fd5b4260065410610e0d576040517f08c379a0000000000000000000000000000000000000000000000000000000008152600401610e0490611618565b60405180910390fd5b610e5f82600760003373ffffffffffffffffffffffffffffffffffffffff1673ffffffffffffffffffffffffffffffffffffffff1681526020019081526020016000205461112b90919063ffffffff16565b600760003373ffffffffffffffffffffffffffffffffffffffff1673ffffffffffffffffffffffffffffffffffffffff16815260200190815260200160002081905550610ef482600760008673ffffffffffffffffffffffffffffffffffffffff1673ffffffffffffffffffffffffffffffffffffffff1681526020019081526020016000205461111590919063ffffffff16565b600760008573ffffffffffffffffffffffffffffffffffffffff1673ffffffffffffffffffffffffffffffffffffffff168152602001908152602001600020819055508273ffffffffffffffffffffffffffffffffffffffff163373ffffffffffffffffffffffffffffffffffffffff167fddf252ad1be2c89b69c2b068fc378daa952ba7f163c4a11628f55a4df523b3ef84604051610f949190611678565b60405180910390a36001905092915050565b600460009054906101000a900473ffffffffffffffffffffffffffffffffffffffff1673ffffffffffffffffffffffffffffffffffffffff163373ffffffffffffffffffffffffffffffffffffffff1614611036576040517f08c379a000000000000000000000000000000000000000000000000000000000815260040161102d90611598565b60405180910390fd5b60008111801561104557504281115b611084576040517f08c379a000000000000000000000000000000000000000000000000000000000815260040161107b906115f8565b60405180910390fd5b8060068190555050565b6000600860008473ffffffffffffffffffffffffffffffffffffffff1673ffffffffffffffffffffffffffffffffffffffff16815260200190815260200160002060008373ffffffffffffffffffffffffffffffffffffffff1673ffffffffffffffffffffffffffffffffffffffff16815260200190815260200160002054905092915050565b6000818361112391906116af565b905092915050565b600081836111399190611705565b905092915050565b60008135905061115081611855565b92915050565b6000813590506111658161186c565b92915050565b60006020828403121561117d57600080fd5b600061118b84828501611141565b91505092915050565b600080604083850312156111a757600080fd5b60006111b585828601611141565b92505060206111c685828601611141565b9150509250929050565b6000806000606084860312156111e557600080fd5b60006111f386828701611141565b935050602061120486828701611141565b925050604061121586828701611156565b9150509250925092565b6000806040838503121561123257600080fd5b600061124085828601611141565b925050602061125185828601611156565b9150509250929050565b60006020828403121561126d57600080fd5b600061127b84828501611156565b91505092915050565b61128d8161174b565b82525050565b600061129e82611693565b6112a8818561169e565b93506112b8818560208601611781565b6112c181611844565b840191505092915050565b60006112d960178361169e565b91507f616d6f756e742065786365656420746865206c696d69740000000000000000006000830152602082019050919050565b6000611319601a8361169e565b91507f796f752073686f756c64206861766520736f6d6520746f6b656e0000000000006000830152602082019050919050565b6000611359601f8361169e565b91507f6f6e6c79206f776e65722063616e2063616c6c2074686973206d6574686f64006000830152602082019050919050565b6000611399600f8361169e565b91507f696e7661696c656420416d6f756e7400000000000000000000000000000000006000830152602082019050919050565b60006113d960108361169e565b91507f696e7661696c65642061646472657373000000000000000000000000000000006000830152602082019050919050565b6000611419600d8361169e565b91507f696e7661696c65642054696d65000000000000000000000000000000000000006000830152602082019050919050565b6000611459601f8361169e565b91507f7472616e73616374696f6e2069732063757272656e746c79206c6f636b6564006000830152602082019050919050565b6000611499601c8361169e565b91507f5472616e7366657220746f20746865207a65726f2061646472657373000000006000830152602082019050919050565b60006114d9601e8361169e565b91507f5472616e736665722066726f6d20746865207a65726f206164647265737300006000830152602082019050919050565b61151581611777565b82525050565b60006020820190506115306000830184611284565b92915050565b600060208201905081810360008301526115508184611293565b905092915050565b60006020820190508181036000830152611571816112cc565b9050919050565b600060208201905081810360008301526115918161130c565b9050919050565b600060208201905081810360008301526115b18161134c565b9050919050565b600060208201905081810360008301526115d18161138c565b9050919050565b600060208201905081810360008301526115f1816113cc565b9050919050565b600060208201905081810360008301526116118161140c565b9050919050565b600060208201905081810360008301526116318161144c565b9050919050565b600060208201905081810360008301526116518161148c565b9050919050565b60006020820190508181036000830152611671816114cc565b9050919050565b600060208201905061168d600083018461150c565b92915050565b600081519050919050565b600082825260208201905092915050565b60006116ba82611777565b91506116c583611777565b9250827fffffffffffffffffffffffffffffffffffffffffffffffffffffffffffffffff038211156116fa576116f96117e6565b5b828201905092915050565b600061171082611777565b915061171b83611777565b92508282101561172e5761172d6117e6565b5b828203905092915050565b600061174482611757565b9050919050565b60008115159050919050565b600073ffffffffffffffffffffffffffffffffffffffff82169050919050565b6000819050919050565b60005b8381101561179f578082015181840152602081019050611784565b838111156117ae576000848401525b50505050565b600060028204905060018216806117cc57607f821691505b602082108114156117e0576117df611815565b5b50919050565b7f4e487b7100000000000000000000000000000000000000000000000000000000600052601160045260246000fd5b7f4e487b7100000000000000000000000000000000000000000000000000000000600052602260045260246000fd5b6000601f19601f8301169050919050565b61185e81611739565b811461186957600080fd5b50565b61187581611777565b811461188057600080fd5b5056fea2646970667358221220a9fe74df50612b37eb4fd817e28222c1d2ce117ec6aac8c3a758dd0640e6a83064736f6c63430008000033",
  "immutableReferences": {},
  "source": "// SPDX-License-Identifier: MIT\npragma solidity ^0.8.0;\n\nimport {ERC20TokenInterface} from './IERC20.sol';\nimport \"../node_modules/@openzeppelin/contracts/utils/math/SafeMath.sol\";\n\ncontract ERC20 is ERC20TokenInterface{\n    using SafeMath for uint256;\n    string internal tName;\n    string internal tSymbol;\n    uint256 internal tTotalSupply;\n    uint256 internal  tdecimals;\n    address internal owner;\n    uint256 internal capAmount;\n    uint256 internal lockTransaction;\n\n    mapping(address => uint256) balances;\n    mapping(address => mapping(address => uint256)) allownce;\n\n    constructor(string memory _tokenName,string memory _symbol,uint256 _totalSupply,uint256 _decimals,uint256 _cappedAmount)public{\n        tName = _tokenName;\n        tSymbol = _symbol;\n        balances[msg.sender] += _totalSupply;\n        tTotalSupply = _totalSupply* 10**uint256(_decimals);\n        tdecimals = _decimals;\n        capAmount = _cappedAmount;\n        owner = msg.sender;\n    }\n\n    modifier onlyOwner() {\n        require(msg.sender == owner, \"only owner can call this method\");\n        _;\n    }\n\n\n    function name() override public view returns(string memory) { return tName;}\n    function symbol() override public view returns(string memory) { return tSymbol;}\n    function totalSupply()override  public view returns(uint256) { return tTotalSupply;}\n    function decimals() override public view returns(uint256) { return tdecimals;}\n\n    function balanceOf(address tokenOwner) override public view returns(uint256){ return balances[tokenOwner]; }\n\n    function transfer(address to, uint token) override public  returns(bool success){\n        require(balances[msg.sender] >= token, \"you should have some token\");\n        require(msg.sender != address(0), \"Transfer from the zero address\");\n        require(to != address(0), \"Transfer to the zero address\");\n        require(lockTransaction < block.timestamp, \"transaction is currently locked\");\n\n        balances[msg.sender] = balances[msg.sender].sub(token);\n        balances[to] = balances[to].add(token);\n        emit Transfer(msg.sender,to,token);\n        return true;\n    }\n    function approve(address spender, uint tokens) override public returns(bool success) {\n        require((tokens == 0) || (allownce[msg.sender][spender] == 0));\n        allownce[msg.sender][spender] =  allownce[msg.sender][spender].add(tokens);\n        emit Approval(msg.sender, spender,tokens);\n        return true;\n\n    }\n    function allowance(address _owner, address spender) override public view returns(uint){\n        return allownce[_owner][spender];\n    }\n    function transferFrom(address from, address to, uint tokens) override public returns(bool success) {\n        require(balances[from] >= tokens);\n        require(allownce[from][msg.sender] >= tokens);\n        require(lockTransaction < block.timestamp, \"transaction is currently locked\");\n        require(to != address(0), \"Transfer to the zero address\");\n\n        balances[from] = balances[from].sub(tokens);\n        balances[to] = balances[to].add(tokens);\n        allownce[from][msg.sender] = allownce[from][msg.sender].sub(tokens);\n        emit Transfer(from,to,tokens);\n        return true;\n\n    }\n\n    function mint_token(address _address,uint256 _amount) public onlyOwner{\n        require(_address != address(0), \"invailed address\");\n        require(_amount > 0,\"invailed Amount\");\n        require(tTotalSupply.add(_amount) > capAmount, \"amount exceed the limit\");\n        balances[_address] = balances[_address].add(_amount);\n        tTotalSupply = tTotalSupply.add(_amount);\n    }\n\n    function lock_trans(uint256 time) onlyOwner public{\n        require(time > 0 && time > block.timestamp ,\"invailed Time\");\n        lockTransaction = time;\n\n    }\n\n}\n\n",
  "sourcePath": "D:\\PIAIC Bootcamp (BCC)\\Truffle Projects\\ERC20Token\\contracts\\cappedAndTimeERC20.sol",
  "compiler": {
    "name": "solc",
    "version": "0.8.0+commit.c7dfd78e.Emscripten.clang"
  },
  "schemaVersion": "3.4.3",
  "updatedAt": "2021-09-06T15:20:11.910Z",
  "devdoc": {
    "kind": "dev",
    "methods": {},
    "version": 1
  },
  "userdoc": {
    "kind": "user",
    "methods": {},
    "version": 1
  }
}